{
  "address": "0x03861a559150128CDcA1BB8734510e7A4d23583d",
  "abi": [
    {
      "inputs": [],
      "stateMutability": "nonpayable",
      "type": "constructor"
    },
    {
      "anonymous": false,
      "inputs": [
        {
          "indexed": false,
          "internalType": "uint8",
          "name": "version",
          "type": "uint8"
        }
      ],
      "name": "Initialized",
      "type": "event"
    },
    {
      "anonymous": false,
      "inputs": [
        {
          "indexed": true,
          "internalType": "address",
          "name": "by",
          "type": "address"
        },
        {
          "indexed": true,
          "internalType": "string",
          "name": "name",
          "type": "string"
        },
        {
          "components": [
            {
              "internalType": "uint256",
              "name": "postId",
              "type": "uint256"
            },
            {
              "internalType": "string",
              "name": "url",
              "type": "string"
            },
            {
              "internalType": "string",
              "name": "nameSpace",
              "type": "string"
            },
            {
              "internalType": "address",
              "name": "owner",
              "type": "address"
            }
          ],
          "indexed": false,
          "internalType": "struct Post.PostInfo",
          "name": "post",
          "type": "tuple"
        }
      ],
      "name": "NewPostAdded",
      "type": "event"
    },
    {
      "anonymous": false,
      "inputs": [
        {
          "indexed": true,
          "internalType": "address",
          "name": "previousOwner",
          "type": "address"
        },
        {
          "indexed": true,
          "internalType": "address",
          "name": "newOwner",
          "type": "address"
        }
      ],
      "name": "OwnershipTransferred",
      "type": "event"
    },
    {
      "anonymous": false,
      "inputs": [
        {
          "indexed": false,
          "internalType": "address",
          "name": "account",
          "type": "address"
        }
      ],
      "name": "Paused",
      "type": "event"
    },
    {
      "anonymous": false,
      "inputs": [
        {
          "indexed": true,
          "internalType": "address",
          "name": "by",
          "type": "address"
        },
        {
          "indexed": true,
          "internalType": "string",
          "name": "name",
          "type": "string"
        },
        {
          "components": [
            {
              "internalType": "uint256",
              "name": "postId",
              "type": "uint256"
            },
            {
              "internalType": "string",
              "name": "url",
              "type": "string"
            },
            {
              "internalType": "string",
              "name": "nameSpace",
              "type": "string"
            },
            {
              "internalType": "address",
              "name": "owner",
              "type": "address"
            }
          ],
          "indexed": false,
          "internalType": "struct Post.PostInfo",
          "name": "post",
          "type": "tuple"
        }
      ],
      "name": "PostDeleted",
      "type": "event"
    },
    {
      "anonymous": false,
      "inputs": [
        {
          "indexed": true,
          "internalType": "address",
          "name": "by",
          "type": "address"
        },
        {
          "indexed": true,
          "internalType": "string",
          "name": "name",
          "type": "string"
        },
        {
          "indexed": true,
          "internalType": "uint256",
          "name": "postId",
          "type": "uint256"
        },
        {
          "indexed": false,
          "internalType": "string",
          "name": "oldURL",
          "type": "string"
        },
        {
          "indexed": false,
          "internalType": "string",
          "name": "newURL",
          "type": "string"
        },
        {
          "indexed": false,
          "internalType": "string",
          "name": "oldNameSpace",
          "type": "string"
        }
      ],
      "name": "PostUpdated",
      "type": "event"
    },
    {
      "anonymous": false,
      "inputs": [
        {
          "indexed": true,
          "internalType": "address",
          "name": "from",
          "type": "address"
        },
        {
          "indexed": true,
          "internalType": "address",
          "name": "to",
          "type": "address"
        }
      ],
      "name": "RevenueAccountChanged",
      "type": "event"
    },
    {
      "anonymous": false,
      "inputs": [
        {
          "indexed": false,
          "internalType": "address",
          "name": "account",
          "type": "address"
        }
      ],
      "name": "Unpaused",
      "type": "event"
    },
    {
      "inputs": [
        {
          "internalType": "string",
          "name": "_name",
          "type": "string"
        },
        {
          "internalType": "string[]",
          "name": "_urls",
          "type": "string[]"
        },
        {
          "internalType": "string",
          "name": "_nameSpace",
          "type": "string"
        }
      ],
      "name": "addNewPost",
      "outputs": [],
      "stateMutability": "payable",
      "type": "function"
    },
    {
      "inputs": [],
      "name": "dc",
      "outputs": [
        {
          "internalType": "address",
          "name": "",
          "type": "address"
        }
      ],
      "stateMutability": "view",
      "type": "function"
    },
    {
      "inputs": [
        {
          "internalType": "string",
          "name": "_name",
          "type": "string"
        },
        {
          "internalType": "uint256[]",
          "name": "_postIds",
          "type": "uint256[]"
        }
      ],
      "name": "deletePost",
      "outputs": [],
      "stateMutability": "nonpayable",
      "type": "function"
    },
    {
      "inputs": [
        {
          "internalType": "string",
          "name": "_name",
          "type": "string"
        }
      ],
      "name": "getPostCount",
      "outputs": [
        {
          "internalType": "uint256",
          "name": "postCount",
          "type": "uint256"
        }
      ],
      "stateMutability": "view",
      "type": "function"
    },
    {
      "inputs": [
        {
          "internalType": "string",
          "name": "_name",
          "type": "string"
        }
      ],
      "name": "getPosts",
      "outputs": [
        {
          "components": [
            {
              "internalType": "uint256",
              "name": "postId",
              "type": "uint256"
            },
            {
              "internalType": "string",
              "name": "url",
              "type": "string"
            },
            {
              "internalType": "string",
              "name": "nameSpace",
              "type": "string"
            },
            {
              "internalType": "address",
              "name": "owner",
              "type": "address"
            }
          ],
          "internalType": "struct Post.PostInfo[]",
          "name": "",
          "type": "tuple[]"
        }
      ],
      "stateMutability": "view",
      "type": "function"
    },
    {
      "inputs": [
        {
          "internalType": "address",
          "name": "_dc",
          "type": "address"
        },
        {
          "internalType": "address",
          "name": "_revenueAccount",
          "type": "address"
        }
      ],
      "name": "initialize",
      "outputs": [],
      "stateMutability": "nonpayable",
      "type": "function"
    },
    {
      "inputs": [
        {
          "internalType": "bytes32",
          "name": "",
          "type": "bytes32"
        },
        {
          "internalType": "uint256",
          "name": "",
          "type": "uint256"
        }
      ],
      "name": "isPostDeleted",
      "outputs": [
        {
          "internalType": "bool",
          "name": "",
          "type": "bool"
        }
      ],
      "stateMutability": "view",
      "type": "function"
    },
    {
      "inputs": [
        {
          "internalType": "string",
          "name": "_name",
          "type": "string"
        },
        {
          "internalType": "string[]",
          "name": "_tweetURLs",
          "type": "string[]"
        }
      ],
      "name": "migrate",
      "outputs": [],
      "stateMutability": "nonpayable",
      "type": "function"
    },
    {
      "inputs": [],
      "name": "owner",
      "outputs": [
        {
          "internalType": "address",
          "name": "",
          "type": "address"
        }
      ],
      "stateMutability": "view",
      "type": "function"
    },
    {
      "inputs": [],
      "name": "pause",
      "outputs": [],
      "stateMutability": "nonpayable",
      "type": "function"
    },
    {
      "inputs": [],
      "name": "paused",
      "outputs": [
        {
          "internalType": "bool",
          "name": "",
          "type": "bool"
        }
      ],
      "stateMutability": "view",
      "type": "function"
    },
    {
      "inputs": [
        {
          "internalType": "string",
          "name": "_name",
          "type": "string"
        },
        {
          "internalType": "string",
          "name": "_nameSpace",
          "type": "string"
        },
        {
          "internalType": "uint256",
          "name": "_postId",
          "type": "uint256"
        }
      ],
      "name": "pinPost",
      "outputs": [],
      "stateMutability": "nonpayable",
      "type": "function"
    },
    {
      "inputs": [
        {
          "internalType": "bytes32",
          "name": "",
          "type": "bytes32"
        },
        {
          "internalType": "address",
          "name": "",
          "type": "address"
        },
        {
          "internalType": "string",
          "name": "",
          "type": "string"
        }
      ],
      "name": "pinnedPostId",
      "outputs": [
        {
          "internalType": "uint256",
          "name": "",
          "type": "uint256"
        }
      ],
      "stateMutability": "view",
      "type": "function"
    },
    {
      "inputs": [],
      "name": "postAddPrice",
      "outputs": [
        {
          "internalType": "uint256",
          "name": "",
          "type": "uint256"
        }
      ],
      "stateMutability": "view",
      "type": "function"
    },
    {
      "inputs": [
        {
          "internalType": "bytes32",
          "name": "",
          "type": "bytes32"
        },
        {
          "internalType": "uint256",
          "name": "",
          "type": "uint256"
        }
      ],
      "name": "posts",
      "outputs": [
        {
          "internalType": "uint256",
          "name": "postId",
          "type": "uint256"
        },
        {
          "internalType": "string",
          "name": "url",
          "type": "string"
        },
        {
          "internalType": "string",
          "name": "nameSpace",
          "type": "string"
        },
        {
          "internalType": "address",
          "name": "owner",
          "type": "address"
        }
      ],
      "stateMutability": "view",
      "type": "function"
    },
    {
      "inputs": [],
      "name": "renounceOwnership",
      "outputs": [],
      "stateMutability": "nonpayable",
      "type": "function"
    },
    {
      "inputs": [],
      "name": "revenueAccount",
      "outputs": [
        {
          "internalType": "address",
          "name": "",
          "type": "address"
        }
      ],
      "stateMutability": "view",
      "type": "function"
    },
    {
      "inputs": [
        {
          "internalType": "address",
          "name": "_dc",
          "type": "address"
        }
      ],
      "name": "setDCAddress",
      "outputs": [],
      "stateMutability": "nonpayable",
      "type": "function"
    },
    {
      "inputs": [
        {
          "internalType": "uint256",
          "name": "_postAddPrice",
          "type": "uint256"
        }
      ],
      "name": "setPostAddPrice",
      "outputs": [],
      "stateMutability": "nonpayable",
      "type": "function"
    },
    {
      "inputs": [
        {
          "internalType": "address",
          "name": "_revenueAccount",
          "type": "address"
        }
      ],
      "name": "setRevenueAccount",
      "outputs": [],
      "stateMutability": "nonpayable",
      "type": "function"
    },
    {
      "inputs": [
        {
          "internalType": "address",
          "name": "newOwner",
          "type": "address"
        }
      ],
      "name": "transferOwnership",
      "outputs": [],
      "stateMutability": "nonpayable",
      "type": "function"
    },
    {
      "inputs": [
        {
          "internalType": "string",
          "name": "_name",
          "type": "string"
        },
        {
          "internalType": "address",
          "name": "_receiver",
          "type": "address"
        },
        {
          "internalType": "bool",
          "name": "_isAllNameSpace",
          "type": "bool"
        },
        {
          "internalType": "string",
          "name": "_nameSpace",
          "type": "string"
        }
      ],
      "name": "transferPostOwnership",
      "outputs": [],
      "stateMutability": "nonpayable",
      "type": "function"
    },
    {
      "inputs": [],
      "name": "unpause",
      "outputs": [],
      "stateMutability": "nonpayable",
      "type": "function"
    },
    {
      "inputs": [
        {
          "internalType": "string",
          "name": "_name",
          "type": "string"
        },
        {
          "internalType": "string",
          "name": "_nameSpace",
          "type": "string"
        }
      ],
      "name": "unpinPost",
      "outputs": [],
      "stateMutability": "nonpayable",
      "type": "function"
    },
    {
      "inputs": [
        {
          "internalType": "string",
          "name": "_name",
          "type": "string"
        },
        {
          "internalType": "uint256",
          "name": "_postId",
          "type": "uint256"
        },
        {
          "internalType": "string",
          "name": "_newURL",
          "type": "string"
        }
      ],
      "name": "updatePost",
      "outputs": [],
      "stateMutability": "nonpayable",
      "type": "function"
    },
    {
      "inputs": [],
      "name": "withdraw",
      "outputs": [],
      "stateMutability": "nonpayable",
      "type": "function"
    }
  ],
  "transactionHash": "0xf05a75d0ba77ddfe7fdff31ad07c087b547e3ea004c4801e11f52479021a6701",
  "args": [],
  "numDeployments": 1,
  "solcInputHash": "dca0f7a0acf3972e736463277d70d74f",
  "bytecode": "0x60806040523480156200001157600080fd5b50620000226200002860201b60201c565b620001d3565b600060019054906101000a900460ff16156200007b576040517f08c379a0000000000000000000000000000000000000000000000000000000008152600401620000729062000176565b60405180910390fd5b60ff801660008054906101000a900460ff1660ff161015620000ed5760ff6000806101000a81548160ff021916908360ff1602179055507f7f26b83ff96e1f2b6a682f133852f6798a09c465da95921460cefb384740249860ff604051620000e49190620001b6565b60405180910390a15b565b600082825260208201905092915050565b7f496e697469616c697a61626c653a20636f6e747261637420697320696e69746960008201527f616c697a696e6700000000000000000000000000000000000000000000000000602082015250565b60006200015e602783620000ef565b91506200016b8262000100565b604082019050919050565b6000602082019050818103600083015262000191816200014f565b9050919050565b600060ff82169050919050565b620001b08162000198565b82525050565b6000602082019050620001cd6000830184620001a5565b92915050565b615bef80620001e36000396000f3fe6080604052600436106101815760003560e01c80637c53911b116100d1578063d8a531a61161008a578063ef9a5aa811610064578063ef9a5aa814610526578063f165c0381461054f578063f2fde38b14610578578063f5dc7d56146105a157610181565b8063d8a531a61461047e578063da5d2946146104a9578063ecf611f8146104e957610181565b80637c53911b146103a35780638456cb59146103bf5780638da5cb5b146103d6578063948d59f9146104015780639e02b14f1461042a578063cf2827d11461045557610181565b80633ccfd60b1161013e57806351f5f5a21161011857806351f5f5a2146102fb578063591505a8146103385780635c975abb14610361578063715018a61461038c57610181565b80633ccfd60b146102a45780633f4ba83a146102bb578063485cc955146102d257610181565b80631247f2531461018657806312a9abec146101af5780632148fa26146101d8578063225edbdf1461021557806330027f3b146102525780633a1e9f771461027b575b600080fd5b34801561019257600080fd5b506101ad60048036038101906101a89190613e62565b6105cc565b005b3480156101bb57600080fd5b506101d660048036038101906101d19190613f55565b610d80565b005b3480156101e457600080fd5b506101ff60048036038101906101fa9190613f82565b610dcc565b60405161020c9190613fde565b60405180910390f35b34801561022157600080fd5b5061023c60048036038101906102379190614170565b610e60565b6040516102499190613fde565b60405180910390f35b34801561025e57600080fd5b5061027960048036038101906102749190613f55565b610ea8565b005b34801561028757600080fd5b506102a2600480360381019061029d9190614235565b610f70565b005b3480156102b057600080fd5b506102b96111ee565b005b3480156102c757600080fd5b506102d061138c565b005b3480156102de57600080fd5b506102f960048036038101906102f491906142b6565b61139e565b005b34801561030757600080fd5b50610322600480360381019061031d91906142f6565b6115d7565b60405161032f9190614351565b60405180910390f35b34801561034457600080fd5b5061035f600480360381019061035a919061436c565b611606565b005b34801561036d57600080fd5b506103766119d8565b6040516103839190614351565b60405180910390f35b34801561039857600080fd5b506103a16119ef565b005b6103bd60048036038101906103b891906143ed565b611a03565b005b3480156103cb57600080fd5b506103d461201b565b005b3480156103e257600080fd5b506103eb61202d565b6040516103f891906144b0565b60405180910390f35b34801561040d57600080fd5b5061042860048036038101906104239190614521565b612057565b005b34801561043657600080fd5b5061043f6125de565b60405161044c9190613fde565b60405180910390f35b34801561046157600080fd5b5061047c600480360381019061047791906145a2565b6125e4565b005b34801561048a57600080fd5b50610493612ce0565b6040516104a091906144b0565b60405180910390f35b3480156104b557600080fd5b506104d060048036038101906104cb91906142f6565b612d06565b6040516104e094939291906146b6565b60405180910390f35b3480156104f557600080fd5b50610510600480360381019061050b9190613f82565b612e83565b60405161051d919061489d565b60405180910390f35b34801561053257600080fd5b5061054d600480360381019061054891906148eb565b613165565b005b34801561055b57600080fd5b5061057660048036038101906105719190614992565b613873565b005b34801561058457600080fd5b5061059f600480360381019061059a9190613f55565b613885565b005b3480156105ad57600080fd5b506105b6613908565b6040516105c391906144b0565b60405180910390f35b6105d461392e565b84848080601f016020809104026020016040519081016040528093929190818152602001838380828437600081840152601f19601f820116905080830192505050505050506000609760009054906101000a900473ffffffffffffffffffffffffffffffffffffffff1673ffffffffffffffffffffffffffffffffffffffff1663920ffa26836040518263ffffffff1660e01b815260040161067691906149bf565b602060405180830381865afa158015610693573d6000803e3d6000fd5b505050506040513d601f19601f820116820180604052508101906106b791906149f6565b90508073ffffffffffffffffffffffffffffffffffffffff163373ffffffffffffffffffffffffffffffffffffffff1614610727576040517f08c379a000000000000000000000000000000000000000000000000000000000815260040161071e90614a6f565b60405180910390fd5b86868080601f016020809104026020016040519081016040528093929190818152602001838380828437600081840152601f19601f820116905080830192505050505050506000609760009054906101000a900473ffffffffffffffffffffffffffffffffffffffff1673ffffffffffffffffffffffffffffffffffffffff166305457b3d836040518263ffffffff1660e01b81526004016107c991906149bf565b602060405180830381865afa1580156107e6573d6000803e3d6000fd5b505050506040513d601f19601f8201168201806040525081019061080a9190614aa4565b905080421061084e576040517f08c379a000000000000000000000000000000000000000000000000000000000815260040161084590614b1d565b60405180910390fd5b60008989604051610860929190614b6d565b604051809103902090506000339050600060986000848152602001908152602001600020888154811061089657610895614b86565b5b9060005260206000209060040201604051806080016040529081600082015481526020016001820180546108c990614be4565b80601f01602080910402602001604051908101604052809291908181526020018280546108f590614be4565b80156109425780601f1061091757610100808354040283529160200191610942565b820191906000526020600020905b81548152906001019060200180831161092557829003601f168201915b5050505050815260200160028201805461095b90614be4565b80601f016020809104026020016040519081016040528092919081815260200182805461098790614be4565b80156109d45780601f106109a9576101008083540402835291602001916109d4565b820191906000526020600020905b8154815290600101906020018083116109b757829003601f168201915b505050505081526020016003820160009054906101000a900473ffffffffffffffffffffffffffffffffffffffff1673ffffffffffffffffffffffffffffffffffffffff1673ffffffffffffffffffffffffffffffffffffffff1681525050905060996000848152602001908152602001600020600089815260200190815260200160002060009054906101000a900460ff1615610aa7576040517f08c379a0000000000000000000000000000000000000000000000000000000008152600401610a9e90614c61565b60405180910390fd5b6000609b600085815260200190815260200160002060008473ffffffffffffffffffffffffffffffffffffffff1673ffffffffffffffffffffffffffffffffffffffff1681526020019081526020016000208b8b604051610b09929190614cb1565b90815260200160405180910390205414610b58576040517f08c379a0000000000000000000000000000000000000000000000000000000008152600401610b4f90614d16565b60405180910390fd5b8989604051602001610b6b929190614cb1565b604051602081830303815290604052805190602001208160400151604051602001610b969190614d67565b6040516020818303038152906040528051906020012014610bec576040517f08c379a0000000000000000000000000000000000000000000000000000000008152600401610be390614dca565b60405180910390fd5b8173ffffffffffffffffffffffffffffffffffffffff16816060015173ffffffffffffffffffffffffffffffffffffffff1614610c5e576040517f08c379a0000000000000000000000000000000000000000000000000000000008152600401610c5590614e36565b60405180910390fd5b60008803610cfe577fffffffffffffffffffffffffffffffffffffffffffffffffffffffffffffffff609b600085815260200190815260200160002060008473ffffffffffffffffffffffffffffffffffffffff1673ffffffffffffffffffffffffffffffffffffffff1681526020019081526020016000208b8b604051610ce7929190614cb1565b908152602001604051809103902081905550610d72565b87609b600085815260200190815260200160002060008473ffffffffffffffffffffffffffffffffffffffff1673ffffffffffffffffffffffffffffffffffffffff1681526020019081526020016000208b8b604051610d5f929190614cb1565b9081526020016040518091039020819055505b505050505050505050505050565b610d88613978565b80609760006101000a81548173ffffffffffffffffffffffffffffffffffffffff021916908373ffffffffffffffffffffffffffffffffffffffff16021790555050565b6000808383604051610ddf929190614b6d565b6040518091039020905060005b6098600083815260200190815260200160002080549050811015610e585760996000838152602001908152602001600020600082815260200190815260200160002060009054906101000a900460ff16610e4d5782610e4a90614e85565b92505b806001019050610dec565b505092915050565b609b6020528260005260406000206020528160005260406000208180516020810182018051848252602083016020850120818352809550505050505060009250925050505481565b610eb0613978565b8073ffffffffffffffffffffffffffffffffffffffff16609a60009054906101000a900473ffffffffffffffffffffffffffffffffffffffff1673ffffffffffffffffffffffffffffffffffffffff167fe03b0e59900b6347a6bdef98fe51689d53064c5235a2ca9fc10a27c497ec730760405160405180910390a380609a60006101000a81548173ffffffffffffffffffffffffffffffffffffffff021916908373ffffffffffffffffffffffffffffffffffffffff16021790555050565b610f78613978565b60008484604051610f8a929190614b6d565b604051809103902090506000609760009054906101000a900473ffffffffffffffffffffffffffffffffffffffff1673ffffffffffffffffffffffffffffffffffffffff1663920ffa2687876040518363ffffffff1660e01b8152600401610ff3929190614efa565b602060405180830381865afa158015611010573d6000803e3d6000fd5b505050506040513d601f19601f8201168201806040525081019061103491906149f6565b905060006098600084815260200190815260200160002080549050905060005b858590508110156111e45760006040518060800160405280848061107790614e85565b9550815260200188888581811061109157611090614b86565b5b90506020028101906110a39190614f2d565b8080601f016020809104026020016040519081016040528093929190818152602001838380828437600081840152601f19601f8201169050808301925050505050505081526020016040518060200160405280600081525081526020018573ffffffffffffffffffffffffffffffffffffffff16815250905060986000868152602001908152602001600020819080600181540180825580915050600190039060005260206000209060040201600090919091909150600082015181600001556020820151816001019081611178919061513c565b50604082015181600201908161118e919061513c565b5060608201518160030160006101000a81548173ffffffffffffffffffffffffffffffffffffffff021916908373ffffffffffffffffffffffffffffffffffffffff160217905550505081600101915050611054565b5050505050505050565b6111f661202d565b73ffffffffffffffffffffffffffffffffffffffff163373ffffffffffffffffffffffffffffffffffffffff16148061127c5750609a60009054906101000a900473ffffffffffffffffffffffffffffffffffffffff1673ffffffffffffffffffffffffffffffffffffffff163373ffffffffffffffffffffffffffffffffffffffff16145b6112bb576040517f08c379a00000000000000000000000000000000000000000000000000000000081526004016112b290615280565b60405180910390fd5b6000609a60009054906101000a900473ffffffffffffffffffffffffffffffffffffffff1673ffffffffffffffffffffffffffffffffffffffff1647604051611303906152c6565b60006040518083038185875af1925050503d8060008114611340576040519150601f19603f3d011682016040523d82523d6000602084013e611345565b606091505b5050905080611389576040517f08c379a000000000000000000000000000000000000000000000000000000000815260040161138090615327565b60405180910390fd5b50565b611394613978565b61139c6139f6565b565b60008060019054906101000a900460ff161590508080156113cf5750600160008054906101000a900460ff1660ff16105b806113fc57506113de30613a59565b1580156113fb5750600160008054906101000a900460ff1660ff16145b5b61143b576040517f08c379a0000000000000000000000000000000000000000000000000000000008152600401611432906153b9565b60405180910390fd5b60016000806101000a81548160ff021916908360ff1602179055508015611478576001600060016101000a81548160ff0219169083151502179055505b611480613a7c565b611488613ad5565b600073ffffffffffffffffffffffffffffffffffffffff168373ffffffffffffffffffffffffffffffffffffffff16036114f7576040517f08c379a00000000000000000000000000000000000000000000000000000000081526004016114ee90615425565b60405180910390fd5b82609760006101000a81548173ffffffffffffffffffffffffffffffffffffffff021916908373ffffffffffffffffffffffffffffffffffffffff16021790555081609a60006101000a81548173ffffffffffffffffffffffffffffffffffffffff021916908373ffffffffffffffffffffffffffffffffffffffff16021790555080156115d25760008060016101000a81548160ff0219169083151502179055507f7f26b83ff96e1f2b6a682f133852f6798a09c465da95921460cefb384740249860016040516115c9919061548d565b60405180910390a15b505050565b60996020528160005260406000206020528060005260406000206000915091509054906101000a900460ff1681565b61160e61392e565b83838080601f016020809104026020016040519081016040528093929190818152602001838380828437600081840152601f19601f820116905080830192505050505050506000609760009054906101000a900473ffffffffffffffffffffffffffffffffffffffff1673ffffffffffffffffffffffffffffffffffffffff1663920ffa26836040518263ffffffff1660e01b81526004016116b091906149bf565b602060405180830381865afa1580156116cd573d6000803e3d6000fd5b505050506040513d601f19601f820116820180604052508101906116f191906149f6565b90508073ffffffffffffffffffffffffffffffffffffffff163373ffffffffffffffffffffffffffffffffffffffff1614611761576040517f08c379a000000000000000000000000000000000000000000000000000000000815260040161175890614a6f565b60405180910390fd5b85858080601f016020809104026020016040519081016040528093929190818152602001838380828437600081840152601f19601f820116905080830192505050505050506000609760009054906101000a900473ffffffffffffffffffffffffffffffffffffffff1673ffffffffffffffffffffffffffffffffffffffff166305457b3d836040518263ffffffff1660e01b815260040161180391906149bf565b602060405180830381865afa158015611820573d6000803e3d6000fd5b505050506040513d601f19601f820116820180604052508101906118449190614aa4565b9050804210611888576040517f08c379a000000000000000000000000000000000000000000000000000000000815260040161187f90614b1d565b60405180910390fd5b6000888860405161189a929190614b6d565b6040518091039020905060003390506000609b600084815260200190815260200160002060008373ffffffffffffffffffffffffffffffffffffffff1673ffffffffffffffffffffffffffffffffffffffff168152602001908152602001600020898960405161190b929190614cb1565b9081526020016040518091039020540361195a576040517f08c379a0000000000000000000000000000000000000000000000000000000008152600401611951906154f4565b60405180910390fd5b609b600083815260200190815260200160002060008273ffffffffffffffffffffffffffffffffffffffff1673ffffffffffffffffffffffffffffffffffffffff16815260200190815260200160002088886040516119ba929190614cb1565b90815260200160405180910390206000905550505050505050505050565b6000606560009054906101000a900460ff16905090565b6119f7613978565b611a016000613b2e565b565b611a0b61392e565b85858080601f016020809104026020016040519081016040528093929190818152602001838380828437600081840152601f19601f820116905080830192505050505050506000609760009054906101000a900473ffffffffffffffffffffffffffffffffffffffff1673ffffffffffffffffffffffffffffffffffffffff1663920ffa26836040518263ffffffff1660e01b8152600401611aad91906149bf565b602060405180830381865afa158015611aca573d6000803e3d6000fd5b505050506040513d601f19601f82011682018060405250810190611aee91906149f6565b90508073ffffffffffffffffffffffffffffffffffffffff163373ffffffffffffffffffffffffffffffffffffffff1614611b5e576040517f08c379a0000000000000000000000000000000000000000000000000000000008152600401611b5590614a6f565b60405180910390fd5b87878080601f016020809104026020016040519081016040528093929190818152602001838380828437600081840152601f19601f820116905080830192505050505050506000609760009054906101000a900473ffffffffffffffffffffffffffffffffffffffff1673ffffffffffffffffffffffffffffffffffffffff166305457b3d836040518263ffffffff1660e01b8152600401611c0091906149bf565b602060405180830381865afa158015611c1d573d6000803e3d6000fd5b505050506040513d601f19601f82011682018060405250810190611c419190614aa4565b9050804210611c85576040517f08c379a0000000000000000000000000000000000000000000000000000000008152600401611c7c90614b1d565b60405180910390fd5b60008a8a604051611c97929190614b6d565b60405180910390209050610400878790501115611ce9576040517f08c379a0000000000000000000000000000000000000000000000000000000008152600401611ce090615560565b60405180910390fd5b609c543414611d2d576040517f08c379a0000000000000000000000000000000000000000000000000000000008152600401611d24906155cc565b60405180910390fd5b60006098600083815260200190815260200160002080549050905060005b8a8a905081101561200c5760008b8b83818110611d6b57611d6a614b86565b5b9050602002810190611d7d9190614f2d565b8080601f016020809104026020016040519081016040528093929190818152602001838380828437600081840152601f19601f82011690508083019250505050505050905061040081511115611e08576040517f08c379a0000000000000000000000000000000000000000000000000000000008152600401611dff90615638565b60405180910390fd5b6000815103611e4c576040517f08c379a0000000000000000000000000000000000000000000000000000000008152600401611e43906156a4565b60405180910390fd5b6000339050600060405180608001604052808681526020018481526020018d8d8080601f016020809104026020016040519081016040528093929190818152602001838380828437600081840152601f19601f8201169050808301925050505050505081526020018373ffffffffffffffffffffffffffffffffffffffff16815250905060986000878152602001908152602001600020819080600181540180825580915050600190039060005260206000209060040201600090919091909150600082015181600001556020820151816001019081611f2c919061513c565b506040820151816002019081611f42919061513c565b5060608201518160030160006101000a81548173ffffffffffffffffffffffffffffffffffffffff021916908373ffffffffffffffffffffffffffffffffffffffff160217905550505084611f9690614e85565b94508f8f604051611fa8929190614cb1565b60405180910390203373ffffffffffffffffffffffffffffffffffffffff167f4675cdca972914dafd78fcb7825e449d618bf79f55e2e22c0ac158c44d4bea7c83604051611ff6919061572e565b60405180910390a3836001019350505050611d4b565b50505050505050505050505050565b612023613978565b61202b613bf4565b565b6000603360009054906101000a900473ffffffffffffffffffffffffffffffffffffffff16905090565b61205f61392e565b83838080601f016020809104026020016040519081016040528093929190818152602001838380828437600081840152601f19601f820116905080830192505050505050506000609760009054906101000a900473ffffffffffffffffffffffffffffffffffffffff1673ffffffffffffffffffffffffffffffffffffffff1663920ffa26836040518263ffffffff1660e01b815260040161210191906149bf565b602060405180830381865afa15801561211e573d6000803e3d6000fd5b505050506040513d601f19601f8201168201806040525081019061214291906149f6565b90508073ffffffffffffffffffffffffffffffffffffffff163373ffffffffffffffffffffffffffffffffffffffff16146121b2576040517f08c379a00000000000000000000000000000000000000000000000000000000081526004016121a990614a6f565b60405180910390fd5b600086866040516121c4929190614b6d565b60405180910390209050600033905060005b868690508110156125d35760008787838181106121f6576121f5614b86565b5b905060200201359050600060986000868152602001908152602001600020828154811061222657612225614b86565b5b90600052602060002090600402016040518060800160405290816000820154815260200160018201805461225990614be4565b80601f016020809104026020016040519081016040528092919081815260200182805461228590614be4565b80156122d25780601f106122a7576101008083540402835291602001916122d2565b820191906000526020600020905b8154815290600101906020018083116122b557829003601f168201915b505050505081526020016002820180546122eb90614be4565b80601f016020809104026020016040519081016040528092919081815260200182805461231790614be4565b80156123645780601f1061233957610100808354040283529160200191612364565b820191906000526020600020905b81548152906001019060200180831161234757829003601f168201915b505050505081526020016003820160009054906101000a900473ffffffffffffffffffffffffffffffffffffffff1673ffffffffffffffffffffffffffffffffffffffff1673ffffffffffffffffffffffffffffffffffffffff168152505090508373ffffffffffffffffffffffffffffffffffffffff16816060015173ffffffffffffffffffffffffffffffffffffffff1614612437576040517f08c379a000000000000000000000000000000000000000000000000000000000815260040161242e9061579c565b60405180910390fd5b600160996000878152602001908152602001600020600084815260200190815260200160002060006101000a81548160ff02191690831515021790555081609b600087815260200190815260200160002060008673ffffffffffffffffffffffffffffffffffffffff1673ffffffffffffffffffffffffffffffffffffffff16815260200190815260200160002082604001516040516124d79190614d67565b9081526020016040518091039020540361256057609b600086815260200190815260200160002060008573ffffffffffffffffffffffffffffffffffffffff1673ffffffffffffffffffffffffffffffffffffffff168152602001908152602001600020816040015160405161254d9190614d67565b9081526020016040518091039020600090555b8a8a604051612570929190614cb1565b60405180910390203373ffffffffffffffffffffffffffffffffffffffff167f2b09d96cf58e161ed99635301ba30c0b700667f41da0732d39eb7f25e3057748836040516125be919061572e565b60405180910390a382600101925050506121d6565b505050505050505050565b609c5481565b6125ec61392e565b84848080601f016020809104026020016040519081016040528093929190818152602001838380828437600081840152601f19601f820116905080830192505050505050506000609760009054906101000a900473ffffffffffffffffffffffffffffffffffffffff1673ffffffffffffffffffffffffffffffffffffffff1663920ffa26836040518263ffffffff1660e01b815260040161268e91906149bf565b602060405180830381865afa1580156126ab573d6000803e3d6000fd5b505050506040513d601f19601f820116820180604052508101906126cf91906149f6565b90508073ffffffffffffffffffffffffffffffffffffffff163373ffffffffffffffffffffffffffffffffffffffff161461273f576040517f08c379a000000000000000000000000000000000000000000000000000000000815260040161273690614a6f565b60405180910390fd5b86868080601f016020809104026020016040519081016040528093929190818152602001838380828437600081840152601f19601f820116905080830192505050505050506000609760009054906101000a900473ffffffffffffffffffffffffffffffffffffffff1673ffffffffffffffffffffffffffffffffffffffff166305457b3d836040518263ffffffff1660e01b81526004016127e191906149bf565b602060405180830381865afa1580156127fe573d6000803e3d6000fd5b505050506040513d601f19601f820116820180604052508101906128229190614aa4565b9050804210612866576040517f08c379a000000000000000000000000000000000000000000000000000000000815260040161285d90614b1d565b60405180910390fd5b60008989604051612878929190614b6d565b60405180910390209050609860008281526020019081526020016000208054905088106128da576040517f08c379a00000000000000000000000000000000000000000000000000000000081526004016128d190615808565b60405180910390fd5b600060986000838152602001908152602001600020898154811061290157612900614b86565b5b90600052602060002090600402016040518060800160405290816000820154815260200160018201805461293490614be4565b80601f016020809104026020016040519081016040528092919081815260200182805461296090614be4565b80156129ad5780601f10612982576101008083540402835291602001916129ad565b820191906000526020600020905b81548152906001019060200180831161299057829003601f168201915b505050505081526020016002820180546129c690614be4565b80601f01602080910402602001604051908101604052809291908181526020018280546129f290614be4565b8015612a3f5780601f10612a1457610100808354040283529160200191612a3f565b820191906000526020600020905b815481529060010190602001808311612a2257829003601f168201915b505050505081526020016003820160009054906101000a900473ffffffffffffffffffffffffffffffffffffffff1673ffffffffffffffffffffffffffffffffffffffff1673ffffffffffffffffffffffffffffffffffffffff168152505090506000339050610400898990501115612aed576040517f08c379a0000000000000000000000000000000000000000000000000000000008152600401612ae490615638565b60405180910390fd5b60008989905003612b33576040517f08c379a0000000000000000000000000000000000000000000000000000000008152600401612b2a906156a4565b60405180910390fd5b8073ffffffffffffffffffffffffffffffffffffffff16826060015173ffffffffffffffffffffffffffffffffffffffff1614612ba5576040517f08c379a0000000000000000000000000000000000000000000000000000000008152600401612b9c9061579c565b60405180910390fd5b6099600084815260200190815260200160002060008b815260200190815260200160002060009054906101000a900460ff1615612c17576040517f08c379a0000000000000000000000000000000000000000000000000000000008152600401612c0e90614c61565b60405180910390fd5b898c8c604051612c28929190614cb1565b60405180910390203373ffffffffffffffffffffffffffffffffffffffff167fea639ea2d67261c2278a3b4c45e5c4e3470164ee89553165fc2ba5443ccd0c9685602001518d8d8860400151604051612c849493929190615828565b60405180910390a48888609860008681526020019081526020016000208c81548110612cb357612cb2614b86565b5b90600052602060002090600402016001019182612cd1929190615881565b50505050505050505050505050565b609760009054906101000a900473ffffffffffffffffffffffffffffffffffffffff1681565b60986020528160005260406000208181548110612d2257600080fd5b906000526020600020906004020160009150915050806000015490806001018054612d4c90614be4565b80601f0160208091040260200160405190810160405280929190818152602001828054612d7890614be4565b8015612dc55780601f10612d9a57610100808354040283529160200191612dc5565b820191906000526020600020905b815481529060010190602001808311612da857829003601f168201915b505050505090806002018054612dda90614be4565b80601f0160208091040260200160405190810160405280929190818152602001828054612e0690614be4565b8015612e535780601f10612e2857610100808354040283529160200191612e53565b820191906000526020600020905b815481529060010190602001808311612e3657829003601f168201915b5050505050908060030160009054906101000a900473ffffffffffffffffffffffffffffffffffffffff16905084565b606060008383604051612e97929190614b6d565b604051809103902090506000612ead8585610dcc565b905060008167ffffffffffffffff811115612ecb57612eca614045565b5b604051908082528060200260200182016040528015612f0457816020015b612ef1613d75565b815260200190600190039081612ee95790505b5090506000805b60986000868152602001908152602001600020805490508110156131575760996000868152602001908152602001600020600082815260200190815260200160002060009054906101000a900460ff1661314c57609860008681526020019081526020016000208181548110612f8457612f83614b86565b5b906000526020600020906004020160405180608001604052908160008201548152602001600182018054612fb790614be4565b80601f0160208091040260200160405190810160405280929190818152602001828054612fe390614be4565b80156130305780601f1061300557610100808354040283529160200191613030565b820191906000526020600020905b81548152906001019060200180831161301357829003601f168201915b5050505050815260200160028201805461304990614be4565b80601f016020809104026020016040519081016040528092919081815260200182805461307590614be4565b80156130c25780601f10613097576101008083540402835291602001916130c2565b820191906000526020600020905b8154815290600101906020018083116130a557829003601f168201915b505050505081526020016003820160009054906101000a900473ffffffffffffffffffffffffffffffffffffffff1673ffffffffffffffffffffffffffffffffffffffff1673ffffffffffffffffffffffffffffffffffffffff168152505083838061312d90614e85565b9450815181106131405761313f614b86565b5b60200260200101819052505b806001019050612f0b565b508194505050505092915050565b61316d61392e565b85858080601f016020809104026020016040519081016040528093929190818152602001838380828437600081840152601f19601f820116905080830192505050505050506000609760009054906101000a900473ffffffffffffffffffffffffffffffffffffffff1673ffffffffffffffffffffffffffffffffffffffff1663920ffa26836040518263ffffffff1660e01b815260040161320f91906149bf565b602060405180830381865afa15801561322c573d6000803e3d6000fd5b505050506040513d601f19601f8201168201806040525081019061325091906149f6565b90508073ffffffffffffffffffffffffffffffffffffffff163373ffffffffffffffffffffffffffffffffffffffff16146132c0576040517f08c379a00000000000000000000000000000000000000000000000000000000081526004016132b790614a6f565b60405180910390fd5b87878080601f016020809104026020016040519081016040528093929190818152602001838380828437600081840152601f19601f820116905080830192505050505050506000609760009054906101000a900473ffffffffffffffffffffffffffffffffffffffff1673ffffffffffffffffffffffffffffffffffffffff166305457b3d836040518263ffffffff1660e01b815260040161336291906149bf565b602060405180830381865afa15801561337f573d6000803e3d6000fd5b505050506040513d601f19601f820116820180604052508101906133a39190614aa4565b90508042106133e7576040517f08c379a00000000000000000000000000000000000000000000000000000000081526004016133de90614b1d565b60405180910390fd5b60008a8a6040516133f9929190614b6d565b60405180910390209050600033905060005b60986000848152602001908152602001600020805490508110156138645760996000848152602001908152602001600020600082815260200190815260200160002060009054906101000a900460ff1661385957600060986000858152602001908152602001600020828154811061348657613485614b86565b5b9060005260206000209060040201604051806080016040529081600082015481526020016001820180546134b990614be4565b80601f01602080910402602001604051908101604052809291908181526020018280546134e590614be4565b80156135325780601f1061350757610100808354040283529160200191613532565b820191906000526020600020905b81548152906001019060200180831161351557829003601f168201915b5050505050815260200160028201805461354b90614be4565b80601f016020809104026020016040519081016040528092919081815260200182805461357790614be4565b80156135c45780601f10613599576101008083540402835291602001916135c4565b820191906000526020600020905b8154815290600101906020018083116135a757829003601f168201915b505050505081526020016003820160009054906101000a900473ffffffffffffffffffffffffffffffffffffffff1673ffffffffffffffffffffffffffffffffffffffff1673ffffffffffffffffffffffffffffffffffffffff168152505090508273ffffffffffffffffffffffffffffffffffffffff16816060015173ffffffffffffffffffffffffffffffffffffffff1603613857578a806136b957508989604051602001613676929190614cb1565b6040516020818303038152906040528051906020012081604001516040516020016136a19190614d67565b60405160208183030381529060405280519060200120145b15613856578b6098600086815260200190815260200160002083815481106136e4576136e3614b86565b5b906000526020600020906004020160030160006101000a81548173ffffffffffffffffffffffffffffffffffffffff021916908373ffffffffffffffffffffffffffffffffffffffff1602179055506000609b600086815260200190815260200160002060008573ffffffffffffffffffffffffffffffffffffffff1673ffffffffffffffffffffffffffffffffffffffff16815260200190815260200160002082604001516040516137979190614d67565b90815260200160405180910390205490507fffffffffffffffffffffffffffffffffffffffffffffffffffffffffffffffff81036137d457600090505b8082600001510361385457609b600086815260200190815260200160002060008573ffffffffffffffffffffffffffffffffffffffff1673ffffffffffffffffffffffffffffffffffffffff16815260200190815260200160002082604001516040516138419190614d67565b9081526020016040518091039020600090555b505b5b505b80600101905061340b565b50505050505050505050505050565b61387b613978565b80609c8190555050565b61388d613978565b600073ffffffffffffffffffffffffffffffffffffffff168173ffffffffffffffffffffffffffffffffffffffff16036138fc576040517f08c379a00000000000000000000000000000000000000000000000000000000081526004016138f3906159c3565b60405180910390fd5b61390581613b2e565b50565b609a60009054906101000a900473ffffffffffffffffffffffffffffffffffffffff1681565b6139366119d8565b15613976576040517f08c379a000000000000000000000000000000000000000000000000000000000815260040161396d90615a2f565b60405180910390fd5b565b613980613c57565b73ffffffffffffffffffffffffffffffffffffffff1661399e61202d565b73ffffffffffffffffffffffffffffffffffffffff16146139f4576040517f08c379a00000000000000000000000000000000000000000000000000000000081526004016139eb90615a9b565b60405180910390fd5b565b6139fe613c5f565b6000606560006101000a81548160ff0219169083151502179055507f5db9ee0a495bf2e6ff9c91a7834c1ba4fdd244a5e8aa4e537bd38aeae4b073aa613a42613c57565b604051613a4f91906144b0565b60405180910390a1565b6000808273ffffffffffffffffffffffffffffffffffffffff163b119050919050565b600060019054906101000a900460ff16613acb576040517f08c379a0000000000000000000000000000000000000000000000000000000008152600401613ac290615b2d565b60405180910390fd5b613ad3613ca8565b565b600060019054906101000a900460ff16613b24576040517f08c379a0000000000000000000000000000000000000000000000000000000008152600401613b1b90615b2d565b60405180910390fd5b613b2c613d14565b565b6000603360009054906101000a900473ffffffffffffffffffffffffffffffffffffffff16905081603360006101000a81548173ffffffffffffffffffffffffffffffffffffffff021916908373ffffffffffffffffffffffffffffffffffffffff1602179055508173ffffffffffffffffffffffffffffffffffffffff168173ffffffffffffffffffffffffffffffffffffffff167f8be0079c531659141344cd1fd0a4f28419497f9722a3daafe3b4186f6b6457e060405160405180910390a35050565b613bfc61392e565b6001606560006101000a81548160ff0219169083151502179055507f62e78cea01bee320cd4e420270b5ea74000d11b0c9f74754ebdbfc544b05a258613c40613c57565b604051613c4d91906144b0565b60405180910390a1565b600033905090565b613c676119d8565b613ca6576040517f08c379a0000000000000000000000000000000000000000000000000000000008152600401613c9d90615b99565b60405180910390fd5b565b600060019054906101000a900460ff16613cf7576040517f08c379a0000000000000000000000000000000000000000000000000000000008152600401613cee90615b2d565b60405180910390fd5b6000606560006101000a81548160ff021916908315150217905550565b600060019054906101000a900460ff16613d63576040517f08c379a0000000000000000000000000000000000000000000000000000000008152600401613d5a90615b2d565b60405180910390fd5b613d73613d6e613c57565b613b2e565b565b6040518060800160405280600081526020016060815260200160608152602001600073ffffffffffffffffffffffffffffffffffffffff1681525090565b6000604051905090565b600080fd5b600080fd5b600080fd5b600080fd5b600080fd5b60008083601f840112613dec57613deb613dc7565b5b8235905067ffffffffffffffff811115613e0957613e08613dcc565b5b602083019150836001820283011115613e2557613e24613dd1565b5b9250929050565b6000819050919050565b613e3f81613e2c565b8114613e4a57600080fd5b50565b600081359050613e5c81613e36565b92915050565b600080600080600060608688031215613e7e57613e7d613dbd565b5b600086013567ffffffffffffffff811115613e9c57613e9b613dc2565b5b613ea888828901613dd6565b9550955050602086013567ffffffffffffffff811115613ecb57613eca613dc2565b5b613ed788828901613dd6565b93509350506040613eea88828901613e4d565b9150509295509295909350565b600073ffffffffffffffffffffffffffffffffffffffff82169050919050565b6000613f2282613ef7565b9050919050565b613f3281613f17565b8114613f3d57600080fd5b50565b600081359050613f4f81613f29565b92915050565b600060208284031215613f6b57613f6a613dbd565b5b6000613f7984828501613f40565b91505092915050565b60008060208385031215613f9957613f98613dbd565b5b600083013567ffffffffffffffff811115613fb757613fb6613dc2565b5b613fc385828601613dd6565b92509250509250929050565b613fd881613e2c565b82525050565b6000602082019050613ff36000830184613fcf565b92915050565b6000819050919050565b61400c81613ff9565b811461401757600080fd5b50565b60008135905061402981614003565b92915050565b600080fd5b6000601f19601f8301169050919050565b7f4e487b7100000000000000000000000000000000000000000000000000000000600052604160045260246000fd5b61407d82614034565b810181811067ffffffffffffffff8211171561409c5761409b614045565b5b80604052505050565b60006140af613db3565b90506140bb8282614074565b919050565b600067ffffffffffffffff8211156140db576140da614045565b5b6140e482614034565b9050602081019050919050565b82818337600083830152505050565b600061411361410e846140c0565b6140a5565b90508281526020810184848401111561412f5761412e61402f565b5b61413a8482856140f1565b509392505050565b600082601f83011261415757614156613dc7565b5b8135614167848260208601614100565b91505092915050565b60008060006060848603121561418957614188613dbd565b5b60006141978682870161401a565b93505060206141a886828701613f40565b925050604084013567ffffffffffffffff8111156141c9576141c8613dc2565b5b6141d586828701614142565b9150509250925092565b60008083601f8401126141f5576141f4613dc7565b5b8235905067ffffffffffffffff81111561421257614211613dcc565b5b60208301915083602082028301111561422e5761422d613dd1565b5b9250929050565b6000806000806040858703121561424f5761424e613dbd565b5b600085013567ffffffffffffffff81111561426d5761426c613dc2565b5b61427987828801613dd6565b9450945050602085013567ffffffffffffffff81111561429c5761429b613dc2565b5b6142a8878288016141df565b925092505092959194509250565b600080604083850312156142cd576142cc613dbd565b5b60006142db85828601613f40565b92505060206142ec85828601613f40565b9150509250929050565b6000806040838503121561430d5761430c613dbd565b5b600061431b8582860161401a565b925050602061432c85828601613e4d565b9150509250929050565b60008115159050919050565b61434b81614336565b82525050565b60006020820190506143666000830184614342565b92915050565b6000806000806040858703121561438657614385613dbd565b5b600085013567ffffffffffffffff8111156143a4576143a3613dc2565b5b6143b087828801613dd6565b9450945050602085013567ffffffffffffffff8111156143d3576143d2613dc2565b5b6143df87828801613dd6565b925092505092959194509250565b6000806000806000806060878903121561440a57614409613dbd565b5b600087013567ffffffffffffffff81111561442857614427613dc2565b5b61443489828a01613dd6565b9650965050602087013567ffffffffffffffff81111561445757614456613dc2565b5b61446389828a016141df565b9450945050604087013567ffffffffffffffff81111561448657614485613dc2565b5b61449289828a01613dd6565b92509250509295509295509295565b6144aa81613f17565b82525050565b60006020820190506144c560008301846144a1565b92915050565b60008083601f8401126144e1576144e0613dc7565b5b8235905067ffffffffffffffff8111156144fe576144fd613dcc565b5b60208301915083602082028301111561451a57614519613dd1565b5b9250929050565b6000806000806040858703121561453b5761453a613dbd565b5b600085013567ffffffffffffffff81111561455957614558613dc2565b5b61456587828801613dd6565b9450945050602085013567ffffffffffffffff81111561458857614587613dc2565b5b614594878288016144cb565b925092505092959194509250565b6000806000806000606086880312156145be576145bd613dbd565b5b600086013567ffffffffffffffff8111156145dc576145db613dc2565b5b6145e888828901613dd6565b955095505060206145fb88828901613e4d565b935050604086013567ffffffffffffffff81111561461c5761461b613dc2565b5b61462888828901613dd6565b92509250509295509295909350565b600081519050919050565b600082825260208201905092915050565b60005b83811015614671578082015181840152602081019050614656565b60008484015250505050565b600061468882614637565b6146928185614642565b93506146a2818560208601614653565b6146ab81614034565b840191505092915050565b60006080820190506146cb6000830187613fcf565b81810360208301526146dd818661467d565b905081810360408301526146f1818561467d565b905061470060608301846144a1565b95945050505050565b600081519050919050565b600082825260208201905092915050565b6000819050602082019050919050565b61473e81613e2c565b82525050565b600082825260208201905092915050565b600061476082614637565b61476a8185614744565b935061477a818560208601614653565b61478381614034565b840191505092915050565b61479781613f17565b82525050565b60006080830160008301516147b56000860182614735565b50602083015184820360208601526147cd8282614755565b915050604083015184820360408601526147e78282614755565b91505060608301516147fc606086018261478e565b508091505092915050565b6000614813838361479d565b905092915050565b6000602082019050919050565b600061483382614709565b61483d8185614714565b93508360208202850161484f85614725565b8060005b8581101561488b578484038952815161486c8582614807565b94506148778361481b565b925060208a01995050600181019050614853565b50829750879550505050505092915050565b600060208201905081810360008301526148b78184614828565b905092915050565b6148c881614336565b81146148d357600080fd5b50565b6000813590506148e5816148bf565b92915050565b6000806000806000806080878903121561490857614907613dbd565b5b600087013567ffffffffffffffff81111561492657614925613dc2565b5b61493289828a01613dd6565b9650965050602061494589828a01613f40565b945050604061495689828a016148d6565b935050606087013567ffffffffffffffff81111561497757614976613dc2565b5b61498389828a01613dd6565b92509250509295509295509295565b6000602082840312156149a8576149a7613dbd565b5b60006149b684828501613e4d565b91505092915050565b600060208201905081810360008301526149d9818461467d565b905092915050565b6000815190506149f081613f29565b92915050565b600060208284031215614a0c57614a0b613dbd565b5b6000614a1a848285016149e1565b91505092915050565b7f506f73743a206f6e6c79204443206f776e657200000000000000000000000000600082015250565b6000614a59601383614642565b9150614a6482614a23565b602082019050919050565b60006020820190508181036000830152614a8881614a4c565b9050919050565b600081519050614a9e81613e36565b92915050565b600060208284031215614aba57614ab9613dbd565b5b6000614ac884828501614a8f565b91505092915050565b7f506f73743a206578706972656420646f6d61696e000000000000000000000000600082015250565b6000614b07601483614642565b9150614b1282614ad1565b602082019050919050565b60006020820190508181036000830152614b3681614afa565b9050919050565b600081905092915050565b6000614b548385614b3d565b9350614b618385846140f1565b82840190509392505050565b6000614b7a828486614b48565b91508190509392505050565b7f4e487b7100000000000000000000000000000000000000000000000000000000600052603260045260246000fd5b7f4e487b7100000000000000000000000000000000000000000000000000000000600052602260045260246000fd5b60006002820490506001821680614bfc57607f821691505b602082108103614c0f57614c0e614bb5565b5b50919050565b7f506f73743a206e6f742065786973740000000000000000000000000000000000600082015250565b6000614c4b600f83614642565b9150614c5682614c15565b602082019050919050565b60006020820190508181036000830152614c7a81614c3e565b9050919050565b600081905092915050565b6000614c988385614c81565b9350614ca58385846140f1565b82840190509392505050565b6000614cbe828486614c8c565b91508190509392505050565b7f506f73743a2070696e6e656420706f737420616c726561647920657869737473600082015250565b6000614d00602083614642565b9150614d0b82614cca565b602082019050919050565b60006020820190508181036000830152614d2f81614cf3565b9050919050565b6000614d4182614637565b614d4b8185614c81565b9350614d5b818560208601614653565b80840191505092915050565b6000614d738284614d36565b915081905092915050565b7f506f73743a206d69736d617463686564206e616d657370616365000000000000600082015250565b6000614db4601a83614642565b9150614dbf82614d7e565b602082019050919050565b60006020820190508181036000830152614de381614da7565b9050919050565b7f506f73743a20696e76616c696420706f7374206f776e65720000000000000000600082015250565b6000614e20601883614642565b9150614e2b82614dea565b602082019050919050565b60006020820190508181036000830152614e4f81614e13565b9050919050565b7f4e487b7100000000000000000000000000000000000000000000000000000000600052601160045260246000fd5b6000614e9082613e2c565b91507fffffffffffffffffffffffffffffffffffffffffffffffffffffffffffffffff8203614ec257614ec1614e56565b5b600182019050919050565b6000614ed98385614642565b9350614ee68385846140f1565b614eef83614034565b840190509392505050565b60006020820190508181036000830152614f15818486614ecd565b90509392505050565b600080fd5b600080fd5b600080fd5b60008083356001602003843603038112614f4a57614f49614f1e565b5b80840192508235915067ffffffffffffffff821115614f6c57614f6b614f23565b5b602083019250600182023603831315614f8857614f87614f28565b5b509250929050565b60008190508160005260206000209050919050565b60006020601f8301049050919050565b600082821b905092915050565b600060088302614ff27fffffffffffffffffffffffffffffffffffffffffffffffffffffffffffffffff82614fb5565b614ffc8683614fb5565b95508019841693508086168417925050509392505050565b6000819050919050565b600061503961503461502f84613e2c565b615014565b613e2c565b9050919050565b6000819050919050565b6150538361501e565b61506761505f82615040565b848454614fc2565b825550505050565b600090565b61507c61506f565b61508781848461504a565b505050565b5b818110156150ab576150a0600082615074565b60018101905061508d565b5050565b601f8211156150f0576150c181614f90565b6150ca84614fa5565b810160208510156150d9578190505b6150ed6150e585614fa5565b83018261508c565b50505b505050565b600082821c905092915050565b6000615113600019846008026150f5565b1980831691505092915050565b600061512c8383615102565b9150826002028217905092915050565b61514582614637565b67ffffffffffffffff81111561515e5761515d614045565b5b6151688254614be4565b6151738282856150af565b600060209050601f8311600181146151a65760008415615194578287015190505b61519e8582615120565b865550615206565b601f1984166151b486614f90565b60005b828110156151dc578489015182556001820191506020850194506020810190506151b7565b868310156151f957848901516151f5601f891682615102565b8355505b6001600288020188555050505b505050505050565b7f506f73743a206d757374206265206f776e6572206f7220726576656e7565206160008201527f63636f756e740000000000000000000000000000000000000000000000000000602082015250565b600061526a602683614642565b91506152758261520e565b604082019050919050565b600060208201905081810360008301526152998161525d565b9050919050565b50565b60006152b0600083614b3d565b91506152bb826152a0565b600082019050919050565b60006152d1826152a3565b9150819050919050565b7f506f73743a206661696c656420746f2077697468647261770000000000000000600082015250565b6000615311601883614642565b915061531c826152db565b602082019050919050565b6000602082019050818103600083015261534081615304565b9050919050565b7f496e697469616c697a61626c653a20636f6e747261637420697320616c72656160008201527f647920696e697469616c697a6564000000000000000000000000000000000000602082015250565b60006153a3602e83614642565b91506153ae82615347565b604082019050919050565b600060208201905081810360008301526153d281615396565b9050919050565b7f506f73743a207a65726f20616464726573730000000000000000000000000000600082015250565b600061540f601283614642565b915061541a826153d9565b602082019050919050565b6000602082019050818103600083015261543e81615402565b9050919050565b6000819050919050565b600060ff82169050919050565b600061547761547261546d84615445565b615014565b61544f565b9050919050565b6154878161545c565b82525050565b60006020820190506154a2600083018461547e565b92915050565b7f506f73743a2070696e6e656420706f7374206e6f742065786973740000000000600082015250565b60006154de601b83614642565b91506154e9826154a8565b602082019050919050565b6000602082019050818103600083015261550d816154d1565b9050919050565b7f506f73743a20616c69617320746f6f206c6f6e67000000000000000000000000600082015250565b600061554a601483614642565b915061555582615514565b602082019050919050565b600060208201905081810360008301526155798161553d565b9050919050565b7f506f73743a20696e636f7272656374207061796d656e74000000000000000000600082015250565b60006155b6601783614642565b91506155c182615580565b602082019050919050565b600060208201905081810360008301526155e5816155a9565b9050919050565b7f506f73743a2075726c20746f6f206c6f6e670000000000000000000000000000600082015250565b6000615622601283614642565b915061562d826155ec565b602082019050919050565b6000602082019050818103600083015261565181615615565b9050919050565b7f506f73743a20656d7074792075726c0000000000000000000000000000000000600082015250565b600061568e600f83614642565b915061569982615658565b602082019050919050565b600060208201905081810360008301526156bd81615681565b9050919050565b60006080830160008301516156dc6000860182614735565b50602083015184820360208601526156f48282614755565b9150506040830151848203604086015261570e8282614755565b9150506060830151615723606086018261478e565b508091505092915050565b6000602082019050818103600083015261574881846156c4565b905092915050565b7f506f73743a206f6e6c7920706f7374206f776e65720000000000000000000000600082015250565b6000615786601583614642565b915061579182615750565b602082019050919050565b600060208201905081810360008301526157b581615779565b9050919050565b7f506f73743a20696e76616c696420706f73742049640000000000000000000000600082015250565b60006157f2601583614642565b91506157fd826157bc565b602082019050919050565b60006020820190508181036000830152615821816157e5565b9050919050565b60006060820190508181036000830152615842818761467d565b90508181036020830152615857818587614ecd565b9050818103604083015261586b818461467d565b905095945050505050565b600082905092915050565b61588b8383615876565b67ffffffffffffffff8111156158a4576158a3614045565b5b6158ae8254614be4565b6158b98282856150af565b6000601f8311600181146158e857600084156158d6578287013590505b6158e08582615120565b865550615948565b601f1984166158f686614f90565b60005b8281101561591e578489013582556001820191506020850194506020810190506158f9565b8683101561593b5784890135615937601f891682615102565b8355505b6001600288020188555050505b50505050505050565b7f4f776e61626c653a206e6577206f776e657220697320746865207a65726f206160008201527f6464726573730000000000000000000000000000000000000000000000000000602082015250565b60006159ad602683614642565b91506159b882615951565b604082019050919050565b600060208201905081810360008301526159dc816159a0565b9050919050565b7f5061757361626c653a2070617573656400000000000000000000000000000000600082015250565b6000615a19601083614642565b9150615a24826159e3565b602082019050919050565b60006020820190508181036000830152615a4881615a0c565b9050919050565b7f4f776e61626c653a2063616c6c6572206973206e6f7420746865206f776e6572600082015250565b6000615a85602083614642565b9150615a9082615a4f565b602082019050919050565b60006020820190508181036000830152615ab481615a78565b9050919050565b7f496e697469616c697a61626c653a20636f6e7472616374206973206e6f74206960008201527f6e697469616c697a696e67000000000000000000000000000000000000000000602082015250565b6000615b17602b83614642565b9150615b2282615abb565b604082019050919050565b60006020820190508181036000830152615b4681615b0a565b9050919050565b7f5061757361626c653a206e6f7420706175736564000000000000000000000000600082015250565b6000615b83601483614642565b9150615b8e82615b4d565b602082019050919050565b60006020820190508181036000830152615bb281615b76565b905091905056fea26469706673582212205be118296936c92eab315668158d64c9e4bcf3fbefd77f05d45a8620ef7c76e764736f6c63430008110033",
  "devdoc": {
    "kind": "dev",
    "methods": {
      "addNewPost(string,string[],string)": {
        "details": "All posts have the same name space",
        "params": {
          "_name": "domain name",
          "_nameSpace": "name space of the post",
          "_urls": "URL list of the post"
        }
      },
      "constructor": {
        "custom:oz-upgrades-unsafe-allow": "constructor"
      },
      "deletePost(string,uint256[])": {
        "details": "Deleting the posts is available regardless the domain expiration",
        "params": {
          "_name": "domain name",
          "_postIds": "postId list to delete"
        }
      },
      "getPostCount(string)": {
        "params": {
          "_name": "domain name"
        }
      },
      "getPosts(string)": {
        "params": {
          "_name": "domain name"
        }
      },
      "owner()": {
        "details": "Returns the address of the current owner."
      },
      "paused()": {
        "details": "Returns true if the contract is paused, and false otherwise."
      },
      "pinPost(string,string,uint256)": {
        "details": "if the postId to pin is 0, store max value of uint256 instead of 0",
        "params": {
          "_name": "domain name",
          "_nameSpace": "namespace",
          "_postId": "id of the post to pin"
        }
      },
      "renounceOwnership()": {
        "details": "Leaves the contract without owner. It will not be possible to call `onlyOwner` functions anymore. Can only be called by the current owner. NOTE: Renouncing ownership will leave the contract without an owner, thereby removing any functionality that is only available to the owner."
      },
      "setDCAddress(address)": {
        "params": {
          "_dc": "DC contract address"
        }
      },
      "setPostAddPrice(uint256)": {
        "params": {
          "_postAddPrice": "price for the post addition"
        }
      },
      "setRevenueAccount(address)": {
        "params": {
          "_revenueAccount": "revenue account address"
        }
      },
      "transferOwnership(address)": {
        "details": "Transfers ownership of the contract to a new account (`newOwner`). Can only be called by the current owner."
      },
      "transferPostOwnership(string,address,bool,string)": {
        "params": {
          "_isAllNameSpace": "indicate whether posts in all name spaces should be transferred or not",
          "_name": "domain name to transfer posts",
          "_nameSpace": "name space of the posts to trasnfer, available only if _isAllNameSpace = false",
          "_receiver": "address to receive the posts"
        }
      },
      "unpinPost(string,string)": {
        "params": {
          "_name": "domain name",
          "_nameSpace": "namespace"
        }
      },
      "updatePost(string,uint256,string)": {
        "details": "Updating the posts is not available after the domain is expired",
        "params": {
          "_name": "domain name",
          "_newURL": "new URL address of the post",
          "_postId": "postId of the post"
        }
      },
      "withdraw()": {
        "details": "Only owner of the revenue account can withdraw funds"
      }
    },
    "stateVariables": {
      "dc": {
        "details": "DC contract"
      },
      "isPostDeleted": {
        "details": "DC TokenId -> PostId -> Bool"
      },
      "pinnedPostId": {
        "details": "DC TokenId -> Owner -> NameSpace -> PostId pinned"
      },
      "postAddPrice": {
        "details": "Price for the post addition"
      },
      "posts": {
        "details": "DC TokenId -> PostInfo list"
      },
      "revenueAccount": {
        "details": "Fee withdrawal address"
      }
    },
    "version": 1
  },
  "userdoc": {
    "kind": "user",
    "methods": {
      "addNewPost(string,string[],string)": {
        "notice": "Add a new posts"
      },
      "deletePost(string,uint256[])": {
        "notice": "Delete the existing posts"
      },
      "getPostCount(string)": {
        "notice": "Returns the number of valid posts registered in the specific domain"
      },
      "getPosts(string)": {
        "notice": "Returns all the valid posts registered in the specific domain"
      },
      "migrate(string,string[])": {
        "notice": "Migrate Tweet contract data to Post contract"
      },
      "pause()": {
        "notice": "Pause the contract"
      },
      "pinPost(string,string,uint256)": {
        "notice": "Pin the post"
      },
      "setDCAddress(address)": {
        "notice": "Set the DC contract address"
      },
      "setPostAddPrice(uint256)": {
        "notice": "Set the price for the post addition"
      },
      "setRevenueAccount(address)": {
        "notice": "Set the revenue account"
      },
      "transferPostOwnership(string,address,bool,string)": {
        "notice": "Transfer the post to another address"
      },
      "unpause()": {
        "notice": "Unpause the contract"
      },
      "unpinPost(string,string)": {
        "notice": "Unpin the post"
      },
      "updatePost(string,uint256,string)": {
        "notice": "Update the existing post"
      },
      "withdraw()": {
        "notice": "Withdraw funds"
      }
    },
    "version": 1
  },
  "storageLayout": {
    "storage": [
      {
        "astId": 138,
        "contract": "contracts/Post.sol:Post",
        "label": "_initialized",
        "offset": 0,
        "slot": "0",
        "type": "t_uint8"
      },
      {
        "astId": 141,
        "contract": "contracts/Post.sol:Post",
        "label": "_initializing",
        "offset": 1,
        "slot": "0",
        "type": "t_bool"
      },
      {
        "astId": 752,
        "contract": "contracts/Post.sol:Post",
        "label": "__gap",
        "offset": 0,
        "slot": "1",
        "type": "t_array(t_uint256)50_storage"
      },
      {
        "astId": 10,
        "contract": "contracts/Post.sol:Post",
        "label": "_owner",
        "offset": 0,
        "slot": "51",
        "type": "t_address"
      },
      {
        "astId": 130,
        "contract": "contracts/Post.sol:Post",
        "label": "__gap",
        "offset": 0,
        "slot": "52",
        "type": "t_array(t_uint256)49_storage"
      },
      {
        "astId": 321,
        "contract": "contracts/Post.sol:Post",
        "label": "_paused",
        "offset": 0,
        "slot": "101",
        "type": "t_bool"
      },
      {
        "astId": 426,
        "contract": "contracts/Post.sol:Post",
        "label": "__gap",
        "offset": 0,
        "slot": "102",
        "type": "t_array(t_uint256)49_storage"
      },
      {
        "astId": 1017,
        "contract": "contracts/Post.sol:Post",
        "label": "dc",
        "offset": 0,
        "slot": "151",
        "type": "t_address"
      },
      {
        "astId": 1024,
        "contract": "contracts/Post.sol:Post",
        "label": "posts",
        "offset": 0,
        "slot": "152",
        "type": "t_mapping(t_bytes32,t_array(t_struct(PostInfo)1014_storage)dyn_storage)"
      },
      {
        "astId": 1031,
        "contract": "contracts/Post.sol:Post",
        "label": "isPostDeleted",
        "offset": 0,
        "slot": "153",
        "type": "t_mapping(t_bytes32,t_mapping(t_uint256,t_bool))"
      },
      {
        "astId": 1034,
        "contract": "contracts/Post.sol:Post",
        "label": "revenueAccount",
        "offset": 0,
        "slot": "154",
        "type": "t_address"
      },
      {
        "astId": 1043,
        "contract": "contracts/Post.sol:Post",
        "label": "pinnedPostId",
        "offset": 0,
        "slot": "155",
        "type": "t_mapping(t_bytes32,t_mapping(t_address,t_mapping(t_string_memory_ptr,t_uint256)))"
      },
      {
        "astId": 1046,
        "contract": "contracts/Post.sol:Post",
        "label": "postAddPrice",
        "offset": 0,
        "slot": "156",
        "type": "t_uint256"
      }
    ],
    "types": {
      "t_address": {
        "encoding": "inplace",
        "label": "address",
        "numberOfBytes": "20"
      },
      "t_array(t_struct(PostInfo)1014_storage)dyn_storage": {
        "base": "t_struct(PostInfo)1014_storage",
        "encoding": "dynamic_array",
        "label": "struct Post.PostInfo[]",
        "numberOfBytes": "32"
      },
      "t_array(t_uint256)49_storage": {
        "base": "t_uint256",
        "encoding": "inplace",
        "label": "uint256[49]",
        "numberOfBytes": "1568"
      },
      "t_array(t_uint256)50_storage": {
        "base": "t_uint256",
        "encoding": "inplace",
        "label": "uint256[50]",
        "numberOfBytes": "1600"
      },
      "t_bool": {
        "encoding": "inplace",
        "label": "bool",
        "numberOfBytes": "1"
      },
      "t_bytes32": {
        "encoding": "inplace",
        "label": "bytes32",
        "numberOfBytes": "32"
      },
      "t_mapping(t_address,t_mapping(t_string_memory_ptr,t_uint256))": {
        "encoding": "mapping",
        "key": "t_address",
        "label": "mapping(address => mapping(string => uint256))",
        "numberOfBytes": "32",
        "value": "t_mapping(t_string_memory_ptr,t_uint256)"
      },
      "t_mapping(t_bytes32,t_array(t_struct(PostInfo)1014_storage)dyn_storage)": {
        "encoding": "mapping",
        "key": "t_bytes32",
        "label": "mapping(bytes32 => struct Post.PostInfo[])",
        "numberOfBytes": "32",
        "value": "t_array(t_struct(PostInfo)1014_storage)dyn_storage"
      },
      "t_mapping(t_bytes32,t_mapping(t_address,t_mapping(t_string_memory_ptr,t_uint256)))": {
        "encoding": "mapping",
        "key": "t_bytes32",
        "label": "mapping(bytes32 => mapping(address => mapping(string => uint256)))",
        "numberOfBytes": "32",
        "value": "t_mapping(t_address,t_mapping(t_string_memory_ptr,t_uint256))"
      },
      "t_mapping(t_bytes32,t_mapping(t_uint256,t_bool))": {
        "encoding": "mapping",
        "key": "t_bytes32",
        "label": "mapping(bytes32 => mapping(uint256 => bool))",
        "numberOfBytes": "32",
        "value": "t_mapping(t_uint256,t_bool)"
      },
      "t_mapping(t_string_memory_ptr,t_uint256)": {
        "encoding": "mapping",
        "key": "t_string_memory_ptr",
        "label": "mapping(string => uint256)",
        "numberOfBytes": "32",
        "value": "t_uint256"
      },
      "t_mapping(t_uint256,t_bool)": {
        "encoding": "mapping",
        "key": "t_uint256",
        "label": "mapping(uint256 => bool)",
        "numberOfBytes": "32",
        "value": "t_bool"
      },
      "t_string_memory_ptr": {
        "encoding": "bytes",
        "label": "string",
        "numberOfBytes": "32"
      },
      "t_string_storage": {
        "encoding": "bytes",
        "label": "string",
        "numberOfBytes": "32"
      },
      "t_struct(PostInfo)1014_storage": {
        "encoding": "inplace",
        "label": "struct Post.PostInfo",
        "members": [
          {
            "astId": 1007,
            "contract": "contracts/Post.sol:Post",
            "label": "postId",
            "offset": 0,
            "slot": "0",
            "type": "t_uint256"
          },
          {
            "astId": 1009,
            "contract": "contracts/Post.sol:Post",
            "label": "url",
            "offset": 0,
            "slot": "1",
            "type": "t_string_storage"
          },
          {
            "astId": 1011,
            "contract": "contracts/Post.sol:Post",
            "label": "nameSpace",
            "offset": 0,
            "slot": "2",
            "type": "t_string_storage"
          },
          {
            "astId": 1013,
            "contract": "contracts/Post.sol:Post",
            "label": "owner",
            "offset": 0,
            "slot": "3",
            "type": "t_address"
          }
        ],
        "numberOfBytes": "128"
      },
      "t_uint256": {
        "encoding": "inplace",
        "label": "uint256",
        "numberOfBytes": "32"
      },
      "t_uint8": {
        "encoding": "inplace",
        "label": "uint8",
        "numberOfBytes": "1"
      }
    }
  }
}